:020000040800F2
:10000000700C0020F9010008BD0800084B0800082A
:10001000B9080008F10500081D0B000800000000E9
:10002000000000000000000000000000EB080008D5
:10003000F505000800000000E9080008ED080008C8
:10004000130200081302000813020008130200083C
:1000500013020008F9050008130200081302000843
:10006000130200081302000813020008130200081C
:10007000130200081302000813020008C50A000852
:100080001302000813020008000000001302000819
:1000900013020008130200081302000813020008EC
:1000A00013020008130200081302000813020008DC
:1000B0001302000800000000130200080000000006
:1000C00013020008000000001302000800000000F6
:1000D0000000000000000000000000000000000020
:1000E00000000000000000001302000800000000F3
:1000F0000000000000000000000000000000000000
:1001000013020008000000000000000000000000D2
:1001100000000000000000000000000000000000DF
:1001200000000000000000000000000000000000CF
:1001300000000000000000000000000000000000BF
:100140000000000000000000000000001302000892
:1001500000F002F800F041F80AA090E8000C824498
:100160008344AAF10107DA4501D100F036F8AFF275
:10017000090EBAE80F0013F0010F18BFFB1A43F085
:1001800001031847241A0000441A0000103A24BF43
:1001900078C878C1FAD8520724BF30C830C144BFEC
:1001A00004680C607047000000230024002500262E
:1001B000103A28BF78C1FBD8520728BF30C148BFCA
:1001C0000B607047732900F09181002070471FB5C4
:1001D00001F09AFC1FBD10B510BD00F0A1F9114649
:1001E000FFF7F5FF00F018FF00F0BFF903B4FFF7C9
:1001F000F2FF03BC00F0C6F90948804709480047F0
:10020000FEE7FEE7FEE7FEE7FEE7FEE7FEE7FEE7C6
:10021000FEE7FEE704480549054A064B7047000023
:10022000F50800085101000870040020700C00203F
:1002300070080020700800200FB4044910B503AA0C
:10024000029800F057F910BC5DF814FB0400002080
:1002500070B50C460546012A05D02878800600D5E1
:10026000EA69002302E0012305E05B1C934202D20D
:10027000E05C0028F9D1A869E618C01AA861286ACC
:10028000184428622846AFF3008004E0D5E9012134
:1002900014F8010B9047B442F8D32846AFF300801E
:1002A00070BD00002DE9F05F894604464FF0000A5A
:1002B000DFF874B1FB44C0F820A02046E16888470D
:1002C000002874D0252806D0D4E901219047206A5F
:1002D000401C2062F1E700265F462046E16888471F
:1002E0002028054607DB312D05D2781910F8200C9F
:1002F00008B10643F1E7B00701D526F00406C4F8BB
:100300001CA00027C4F818A02A2D09D0284600F008
:100310005EFC38B304EB8708303DC8F8185019E08C
:1003200059F8041B204604EB87029161E168884775
:10033000012F054618D1E069002820DA26F02006B2
:100340001DE0D8F8180000EB800005EB40003038C5
:10035000C8F818002046E1688847054600F037FCD9
:100360000028EED1012F0AD02E2D08D12046E168B9
:1003700088477F1C0546022F46F02006C4DBA06993
:10038000002803DA404246F00106A061F00701D0E0
:1003900026F010066C2D0BD0682D09D04C2D39D0CD
:1003A0006A2D35D0742D35D07A2D33D016E038E053
:1003B000E1682F4620468847B842054609D16C2F90
:1003C00026D04FF48060E168064320468847054602
:1003D00004E06C2F1AD04FF4807006430DB3A5F1E2
:1003E0004100192802D8203546F400664A462946BD
:1003F000204626604E46FFF7E5FE80B101280BD06F
:10040000F61D26F0070000F1080956E74020E4E752
:100410008020D8E70020D6E706F104094DE72846FA
:1004200052E7206ABDE8F09FDC18000010B5203AC2
:10043000C0F00B80B1E81850203AA0E81850B1E89D
:100440001850A0E81850BFF4F5AF5FEA027C24BF53
:10045000B1E81850A0E8185044BF18C918C0BDE84A
:1004600010405FEA827C24BF51F8043B40F8043B13
:1004700008BF7047D20728BF31F8023B48BF11F8C8
:10048000012B28BF20F8023B48BF00F8012B704722
:10049000704770477047000001694A1C0261087884
:1004A000704700B58FB0CDE90131002105910549B4
:1004B0007944CDE9031011466846FFF7F3FE0FB00B
:1004C00000BD0000E5FFFFFF10B5436913B1AFF3B6
:1004D000008001E0FFF7BCFE012010BD127800F1A2
:1004E00024010A7000224A700122EDE711684FF0E2
:1004F000FF32E9E7074B70B50D467B44FFF7D1FFAC
:100500000446284600F008F810B14FF0FF3070BDE7
:10051000204670BDBF090000007B00F080007047DE
:10052000754600F02BF8AE4605006946534620F0AC
:100530000700854618B020B5FFF76CFEBDE82040E7
:100540004FF000064FF000074FF000084FF0000B8F
:1005500021F00701AC46ACE8C009ACE8C009ACE842
:10056000C009ACE8C0098D46704710B50446AFF32A
:1005700000802046BDE81040FFF738BE00487047B5
:100580001004002001491820ABBEFEE7260002003F
:10059000704710B540F2096000F094FF40F211502E
:1005A00000F090FF062000F099FD022300220321B5
:1005B0004FF0904000F0CBFC002000F05DFB0121EB
:1005C000084600F029FB4FF46021012000F09EFB5B
:1005D0000121084600F070FB00F060FB012000F0F4
:1005E000B5FB00F0FBFA10BD10B5FFF7D2FF10BD50
:1005F00000BFFEE77047000010B5012000F0C2FB0D
:1006000060B1012000F0B8FB4FF48061044800F0B5
:100610009CFC4FF40061024800F097FC10BD000004
:10062000000400480FB400B587B0BDF8200000F00A
:1006300049FFBDF8220000F045FFBDF8240000F09E
:1006400041FF00220221DDE90A0300F080FC0022C4
:100650000221DDE90D0300F07AFC03220021DDE92F
:100660000A0300F09BFC03220021DDE90D0300F0EA
:1006700095FCDDE90B210A9800F034FCDDE90E2140
:100680000D9800F02FFC109801F01CF803A801F061
:10069000A9F90020ADF80C004FF6FF70059000207E
:1006A000ADF81200ADF80E00ADF8100003A91098D7
:1006B00001F070F801A800F0FBFF0020ADF8040085
:1006C0000120ADF806000020ADF80800ADF80A00E2
:1006D000BDF8441001AA109801F0B2F8BDF8461018
:1006E00001AA109801F0ACF84FF40041109800F006
:1006F000E7FF00231A460321109801F053F91098E0
:1007000000F0A4FF109801F03FF807B05DF814FB6B
:100710002DE9F04107460D461646002407E038460D
:1007200000F009F825F81400BF1C601C84B2B44224
:10073000F5DBBDE8F0810146088870472DE9F05FE0
:1007400080468A461746B8F1006F02D33348804589
:1007500001D3BDE8F09F00F09FFBA8F1006B4FEACA
:100760009B25CBF34809C9F50074A74200DC3C4641
:100770004DE04FF0006101EB85208A142849FFF716
:10078000C7FF00260BE009EB0600254931F81000F1
:100790004FF6FF71884200D003E0701C86B2A6427B
:1007A000F1DB00BFA6421BDA4FF0006101EB8520B0
:1007B00000F024FB002608E03AF8160006EB0901D9
:1007C000174A22F81100701C86B2A642F4DB4FF0E3
:1007D000006101EB85208A14114900F023F804E040
:1007E00022465146404600F01DF8A74200D10FE0D6
:1007F0006D1C4FF000090AEB440AA044381B87B275
:10080000B7F5007F02DD4FF4007400E03C46B0E72E
:1008100000BF00F0E9FA00BF9BE7000000000108FC
:10082000100000202DE9F04105460E461746002431
:1008300007E036F81410284600F0B6FAAD1C601C2C
:1008400084B2BC42F5DBBDE8F08100BFFEE70000EA
:1008500010B540F2125000F035FE40F2125000F098
:1008600031FE4FF4806300220121124800F06FFB3B
:100870004FF40063002201210E4800F068FB4FF4A2
:1008800080634FF6FF7200210A4800F087FB4FF4A7
:1008900000634FF6FF720021064800F07FFB4FF423
:1008A0008061044800F04FFB4FF40061014800F004
:1008B0004AFB10BD0004004800BFFEE7704700007F
:1008C00010B5002807DA0A07140E054A00F00F03D6
:1008D0001B1FD45403E00A07130E024A135410BD21
:1008E00018ED00E000E400E07047704710B500F03C
:1008F00037FA10BD10B56948C06900F00600062837
:1009000071D06648C069C0F3403000286BD064489D
:10091000624948606348486061488860614888600F
:100920000846006940F0200008610846006940F070
:100930004000086100BF5948C06800F0010000286D
:10094000F9D15648006920F0200054490861084652
:10095000006940F0100008610846C06900F0060018
:1009600018B9A5205049088008E04C48C06900F03B
:100970000600022802D1BB204B4908804748C069C5
:10098000000A00F0DF004849891C08804348C0691C
:10099000C0F30740891C08804048C069000E891CCC
:1009A00008803E48006AC0B2891C08803B48006A43
:1009B000C0F30720891C088000BF3848C06800F0D9
:1009C00001000028F9D13548006920F010003349B2
:1009D00008610846006920F4007008610846006953
:1009E00040F0800008613148006840F470002F49F1
:1009F00008602F48006840F001002D49086000BFE2
:100A00002B48006800F002000028F9D02848406810
:100A100020F0030026494860084600682549084040
:100A20002349086008464068234908402049486037
:100A300008464068214908401D4948600846C06A88
:100A40001F4908401A49C8620846006B40F203116A
:100A50008843174908630846006B20F48030086318
:100A60000846006B20F0004008630846406B20F009
:100A7000010048630E48C030006820F48030C1F89F
:100A8000C000002088600A49CC31086000F0B2FD47
:100A900000214FF0006000F015FB10BD0020024067
:100AA00023016745AB89EFCD00F8FF1F88ED00E01B
:100AB00000100240FFFFF2FE0C00FF08FFFFC277AC
:100AC000F0FFFF3F10B50121880700F05FFF01280C
:100AD0000DD10121800700F056FF4FF480610448DA
:100AE00000F033FA4FF40061014800F02EFA10BD17
:100AF0000004004800B591B02822074907A8FFF775
:100B000095FC18220BA96846FFF790FC07A80FC8B0
:100B1000FFF788FD11B000BD6C1B000800BFFEE7A9
:100B200010B58CB004462022074904A8FFF77EFCCC
:100B30000B9408A80FC88DE80F0004A80FC800F098
:100B400005F80CB010BD00002C1B00080FB410B548
:100B5000BDF81C0000F0B6FCBDF80C0000F0B2FCC3
:100B6000049A0899069800F0BDF9DDE90520089976
:100B700000F0B8F901220221049B069800F0E7F981
:100B800001220021049B069800F008FA01220221AC
:100B9000DDE9053000F0DBF901220021DDE9053057
:100BA00000F0FCF9029800F06BFF0999029800F040
:100BB00025FF0421029800F097FF0821029800F019
:100BC0009BFF029800F07CFF10BC5DF814FB3038EE
:100BD0000A2801D201207047002070470D480068A4
:100BE00040F008000B49086000BF0A48006800F0A8
:100BF00008000028F9D10748006840F004000549C2
:100C0000086000BF0348006800F004000028F9D124
:100C1000704700000824014010B5012802D00228C6
:100C200025D110E0134A126822F47002114B1A60A9
:100C30001A4612684B1E4FF4700404EA03531A4319
:100C40000C4B1A6014E00B4A0C32126822F440126A
:100C5000084B0C331A601A4612684B1E4FF44014AE
:100C600004EA03531A43034B0C331A6000E000BF3D
:100C700000BF10BD2C24014030B10749096841F480
:100C80000061054A116005E00349096821F400612B
:100C9000014A1160704700000824014005480068BF
:100CA00000F0010028B90348006840F00100014944
:100CB000086070470824014091B100F001022AB198
:100CC000114A126842F480120F4B1A6000F00202BF
:100CD000C2B10D4A126842F400420B4B1A6011E097
:100CE00000F001022AB1084A126822F48012064B71
:100CF0001A6000F002022AB1034A126822F400428C
:100D0000014B1A607047000008240140012802D0FE
:100D1000022816D10AE00C4A126822F460220A4B1B
:100D20001A601A4612680A431A600BE0064A1268F3
:100D300022F4E042044B1A601A4612680A431A6011
:100D400000E000BF00BF704708240140034908606D
:100D500000BF024909680029FBD17047000000204C
:100D60000448006820B103480068401E014908603B
:100D70007047000000000020014908607047000033
:100D80001404014001460748006800EA01020548D2
:100D90001438006800EA010312B10BB1012070475A
:100DA0000020FCE71404014070B504460D464FF4E2
:100DB000702000F047F806468EB90A48006940F0F6
:100DC00001000849086125804FF4702000F03AF8CE
:100DD00006460448006920F00100024908613046D7
:100DE00070BD0000002002400348006940F0800010
:100DF00001490861704700000020024030B50446F8
:100E00004FF4702000F01EF80546B5B90C48006993
:100E100040F002000A49086108464461006940F058
:100E2000400008614FF4702000F00CF805460448BB
:100E3000006920F0020002490861284630BD000028
:100E40000020024000B50346012200BF00F00CF86C
:100E500002465B1E012A01D1002BF7D1012A00D1E5
:100E60000422104600BD000000200A49C96801F0B4
:100E7000010109B101200CE00649C96801F0100127
:100E800009B1032005E00349C96801F0040101B17B
:100E900002207047002002400548006900F08000F1
:100EA00020B1044802494860034848607047000088
:100EB0000020024023016745AB89EFCD70B50446A1
:100EC0000D46E1B2064800F0D7FD00BF40F20771C1
:100ED000034800F0FAFD0028F8D0204670BD00005D
:100EE00000380140F0B503461C6A5D6A00200DE041
:100EF0000126864016403EB187000F26BE40B4430F
:100F0000860001FA06F63443461CB0B20828EFD337
:100F1000082011E00126864016405EB1A0F10806C7
:100F2000B7000F26BE40B543A0F10806B60001FA8F
:100F300006F63543461CB0B21028EBD31C625D6246
:100F4000F0BD8162704781617047C1627047F0B542
:100F500004460D4616462168E268002019E0012784
:100F600087401F409FB14FEA400C032707FA0CF758
:100F7000B943470005FA07F739434FEA400C032706
:100F800007FA0CF7BA43470006FA07F73A43471C3B
:100F9000B8B21028E3D32160E260F0BDF0B504469A
:100FA0000E46012E03D167681F43676002E0676841
:100FB0009F436760A1684FF6FF77BA4216D1E56B91
:100FC00000200EE0012787401F4047B14FEA400C48
:100FD000032707FA0CF73943012787403D43471C95
:100FE000B8B21028EED3A160E56314E000200FE052
:100FF000012787401F404FB14FEA400C032707FAF3
:101000000CF7B943470002FA07F73943471CB8B257
:101010001028EDD3A160F0BD86B000F0EFFA4FF4D8
:10102000A06000F045F8FFF713FC4FF4E130FFF744
:1010300077FDFFF7D9FA172215491648FFF77EFB0F
:10104000FFF758FD14A0FFF7F7F84FF400611548BB
:10105000FFF777FF4FF480611248FFF774FF172204
:1010600069460C48FFF754FB69460FA0FFF7E4F808
:101070000DE04FF480610B48FFF767FF4FF400610C
:101080000848FFF762FF4FF4FA70FFF75FFEF0E7E2
:10109000121B000800D0000868656C6C6F6F6F6FE2
:1010A0000D0A00000004004825730D0A000000002E
:1010B00002490143024A1160704700000000FA052E
:1010C0000CED00E0034A0A400243034B1A60BFF3F1
:1010D0004F8F704780FFFF1F08ED00E050494968BF
:1010E00021F440414E4A51601146096B4D4A11406E
:1010F0004B4A11630A2871D2DFE800F005111D2761
:101100003642535F717D4649096B21F48031444A70
:1011100011631146096B21F4807111637DE0404930
:10112000096B41F480313E4A11631146096B21F489
:101130008071116371E03A494968394A516011463A
:10114000096B41F48071116367E035494968344A9D
:1011500051601146096B41F0004111631146096B62
:1011600041F48071116358E02D49496841F4804190
:101170002B4A51601146096B41F4807111634CE0B8
:101180002749496841F48041254A51601146096B5D
:1011900041F0004111631146096B41F48071116304
:1011A0003BE01F49496841F400411D4A5160114626
:1011B000096B41F4807111632FE01949496841F4CA
:1011C0000041174A51601146096B41F0004111631B
:1011D0001146096B41F4807111631EE01CE0104957
:1011E000496841F440410E4A51601146096B41F48F
:1011F0008071116311E00A49496841F44041084A8D
:1012000051601146096B41F0004111631146096BB1
:1012100041F48071116300E000BF00BF704700001F
:1012200000100240FFFEFE7F2DE9F04F92B0844691
:1012300000201190109000240F90002500210E90A6
:1012400000230D900C900B900022002600270A909E
:10125000099008908046814690A090E8004CC068B4
:10126000CDE905BECDF810A007900FF2342ADAE9D7
:10127000000ACDE9020A0FF2282ADAE9000ACDE9CC
:10128000000A8A484068C0F381001190119820B18B
:10129000012804D0022847D103E0854D46E0844D63
:1012A00044E082484068C0F3834280484068C0F30D
:1012B000C0667E48C06AC70F0EB907B9921C012EDE
:1012C00001D107B9113216B9012F00D12132012EF7
:1012D00002D1012F00D1313274484068C0F3004080
:1012E0000A907248C06AC0F3807009900A98B8B139
:1012F0006E48C06A00F00F00401C0890099838B989
:10130000DFF8ACA10898BAFBF0F000FB02F50AE0A8
:10131000DFF8A0A10898BAFBF0F000FB02F502E0AC
:10132000654802FB00F501E0614D00BF00BF5F486A
:101330004068C0F3031804A810F8089025FA09F1D2
:101340005A484068C0F3022802A810F8089021FA11
:1013500009F00E9055484068C0F3C2281DF8089067
:1013600021FA09F3BCF1070F75D2DFE80CF004068F
:10137000080B0D5D6D000F958BE00F9189E00E98C5
:101380000F9086E00F9384E04848006B00F4807073
:10139000B0F5807F0CD04548006B00F48030B0F58C
:1013A000803F02D045480D903BE045480D9038E025
:1013B0003E484068C0F3813010903C48006BC40F39
:1013C000109830B101280DD0022814D0032826D15E
:1013D0001CE014B958080D9003E00320B1FBF0F0B5
:1013E0000D901DE014B998080D9003E00520B1FBA5
:1013F000F0F00D9014E024B90620B3FBF0F00D904E
:1014000003E00720B1FBF0F00D9009E014B9D80813
:101410000D9003E00920B1FBF0F00D9000E000BF5B
:1014200000BF0D980F9034E02048006B00F04000A2
:10143000402803D048F212000C9002E04FF4004024
:101440000C900C980F9024E01848006B00F00300FB
:1014500010B90B9319E01BE01448006B00F0030077
:10146000012801D10B9510E01048006B00F003003B
:10147000022802D180030B9007E00C48006B00F0BB
:101480000300032801D10A480B900B980F9000E04D
:1014900000BF00BF0F9812B0BDE8F08F0000000041
:1014A00000000000010203040607080900100240C2
:1014B00000127A00006CDC0200093D00809FD5001C
:1014C000003FAB01064A02EB9011096800F01F03D0
:1014D00001229A401143024B03EB901211607047B6
:1014E00000100240064A02EB9011096800F01F0349
:1014F00001229A409143024B03EB90121160704716
:1015000000100240064A02EB9011096800F01F0328
:1015100001229A401143024B03EB90121160704775
:1015200000100240002000212E4A126842F480324E
:101530002C4B1A6000BF401C2A4A126802F400318A
:1015400011B9B0F5006FF6D1264A126802F40032E4
:1015500002B97047234A5268224B5A601A465268B1
:1015600042F400525A601A46526842F480625A604D
:101570001A4652681C4B1A401A4B5A601A46D26AD5
:101580001A4B1A40174BDA621A465268184B1A4324
:10159000144B5A601A46D26A42F00102DA621A46C5
:1015A000D26ADA621A46126842F080721A6000BF8C
:1015B0000C4A126802F00072002AF9D0094A5268F7
:1015C00022F00302074B5A601A46526842F00202A8
:1015D0005A6000BF034A526802F00802002AF9D09C
:1015E00000BFB6E700100240FFFFC0F7F0FFFF3F6B
:1015F0000000110810B5FFF795FF10BD10B5124897
:1016000000684FF47A71B0FBF1F4601EB0F1807F96
:1016100001D301200FE0601E4FF0E02148610F214F
:101620004FF0FF30FFF74CF900204FF0E0218861C8
:1016300007200861002008B100BFFEE70021481E16
:10164000FFF73EF910BD00000C000020016841F0DA
:1016500080010160704731B101290CD0022913D0FB
:10166000032922D118E0836923F00C038361836985
:10167000134383611AE0836923F4406383618369C0
:1016800043EA0223836111E0C36923F00C03C361C1
:10169000C3691343C36109E0C36923F44063C361B1
:1016A000C36943EA0223C36100E000BF00BF704783
:1016B000002101800121418000218180C18070478B
:1016C0004162704710B504462D49601A8C4214D00F
:1016D00009DCB4F1804F19D02A482044F8B1B0F5A4
:1016E000E05F49D124E0B0F5A05F2AD0B0F5C05F3B
:1016F00030D0B0F5E05F3FD135E040F20B30FFF77E
:1017000001FF40F20B30FFF7EDFE36E04FF4806052
:10171000FFF7F8FE4FF48060FFF7E4FE2DE040F2A3
:101720000140FFF7EFFE40F20140FFF7DBFE24E04F
:101730004FF48160FFF7E6FE4FF48160FFF7D2FEC1
:101740001BE04FF44470FFF7DDFE4FF44470FFF7E9
:10175000C9FE12E040F21130FFF7D4FE40F2113022
:10176000FFF7C0FE09E040F21230FFF7CBFE40F277
:101770001230FFF7B7FE00E000BF00BF10BD000051
:10178000002C014000FCFFBF016841F00101016035
:10179000704700000A888262234A904205D0B0F167
:1017A000804F02D0214A90420BD1026822F0700291
:1017B000026002684B881A43026002688B881A43F1
:1017C00002608A68C262184A904211D0B0F1804F1C
:1017D0000ED0164A90420BD0154A904208D0154AB6
:1017E000904205D0144A904202D0144A904207D148
:1017F000026822F4407202600268CB881A430260D9
:10180000094A904208D00B4A904205D00A4A9042B9
:1018100002D00A4A904201D10A7B0263426942F037
:101820000102426170470000002C014000040040AA
:1018300000200040004001400044014000480140B9
:1018400070B504460E46154636B1012E26D0022E3E
:1018500048D0032E7DD168E0206A20F0010020628C
:10186000206A20F00A002062206A2988084320624A
:10187000A06920F00300A061A06969880843A06105
:10188000A06920F0F000A061A069E98840EA011099
:10189000A061206A40F0010020626DE0206A20F023
:1018A00010002062206A20F0A0002062206A2988AF
:1018B00040EA01102062A06920F44070A061A06994
:1018C000698840EA0120A061A06920F47040A0610D
:1018D000A069E98840EA0130A061206A40F0100068
:1018E000206249E0206A20F480702062206A20F49F
:1018F00020602062206A298840EA01202062E06995
:1019000020F00300E061E06969880843E061E06974
:1019100020F0F000E061E069E98840EA0110E06150
:10192000206A40F48070206226E0206A20F4805013
:101930002062206A20F420402062206A298840EA40
:1019400001302062E06920F44070E061E06969885C
:1019500000E010E040EA0120E061E06920F470401E
:10196000E061E069E98840EA0130E061206A40F422
:101970008050206200E000BF00BFAA8831462046A8
:10198000FFF769FE70BDCA43026170470246D06826
:1019900000EA01031069084010B10BB10120704743
:1019A0000020FCE730B5846824F007048460846874
:1019B0000C438460846940F20335AC4384618469DC
:1019C00040F201152C438461046A24F00A04046285
:1019D000046A24F0A0040462046A42EA03152C435A
:1019E000046230BD00210180418081804FF6FF718B
:1019F00081600021C1800173704700002DE9F0472C
:101A000004460D460027B846B9460026194820442A
:101A100038B1B0F5744F09D10620FFF705FC074631
:101A200005E00220FFF700FC074600E000BF00BF12
:101A3000206800F4004070B1780000EB5500B0FB66
:101A4000F5F64FF6F07006EA0008C6F3420948EAD8
:101A50000900E0600CE007EB5500B0FBF5F64FF62F
:101A6000F07006EA000806F00F0948EA0900E06095
:101A7000BDE8F08700BCFFBFC1F308028262704777
:101A800010B504460D48204458B1B0F5744F11D13B
:101A900040F20E30FFF736FD40F20E30FFF722FD28
:101AA00009E040F21140FFF72DFD40F21140FFF731
:101AB00019FD00E000BF00BF10BD000000BCFFBF6B
:101AC000016841F001010160704710B5024602EB68
:101AD0009110006801F01F040123A340184008B1D1
:101AE000012010BD0020FCE7026822F00402026021
:101AF00002680A4302607047026822F0080202602E
:101B000002680A43026070474FF04070E1EE100A2D
:101B1000704747443332206D6F6469667920464CC4
:101B20004153482054455354000000000038014000
:101B30000E06000000020000000400000000004843
:101B400011050000010000000000000000440040FA
:101B500011070000000100000080000000000048A4
:101B60001105000001000000000000001205120530
:101B70000107000000040048100000000100000000
:101B800000040048200000000100000000040040A4
:101B90000000010004000008000000000000000236
:101BA0000001000010000000C81B00080000002019
:101BB000100000008C010008D81B00081000002055
:101BC000600C0000A80100080000000000000000F8
:081BD0000000000000BD01054A
:04000005080001F9F5
:00000001FF
